{
  "contractName": "SimpleContract",
  "abi": [
    {
      "inputs": [],
      "stateMutability": "nonpayable",
      "type": "constructor"
    },
    {
      "anonymous": false,
      "inputs": [
        {
          "indexed": false,
          "internalType": "uint256",
          "name": "id",
          "type": "uint256"
        },
        {
          "indexed": false,
          "internalType": "string",
          "name": "name",
          "type": "string"
        },
        {
          "indexed": false,
          "internalType": "string",
          "name": "phone",
          "type": "string"
        }
      ],
      "name": "ContactCreated",
      "type": "event"
    },
    {
      "inputs": [
        {
          "internalType": "uint256",
          "name": "",
          "type": "uint256"
        }
      ],
      "name": "contacts",
      "outputs": [
        {
          "internalType": "uint256",
          "name": "id",
          "type": "uint256"
        },
        {
          "internalType": "string",
          "name": "name",
          "type": "string"
        },
        {
          "internalType": "string",
          "name": "phone",
          "type": "string"
        }
      ],
      "stateMutability": "view",
      "type": "function",
      "constant": true
    },
    {
      "inputs": [],
      "name": "count",
      "outputs": [
        {
          "internalType": "uint256",
          "name": "",
          "type": "uint256"
        }
      ],
      "stateMutability": "view",
      "type": "function",
      "constant": true
    },
    {
      "inputs": [
        {
          "internalType": "string",
          "name": "_name",
          "type": "string"
        },
        {
          "internalType": "string",
          "name": "_phone",
          "type": "string"
        }
      ],
      "name": "createContact",
      "outputs": [],
      "stateMutability": "nonpayable",
      "type": "function"
    }
  ],
  "bytecode": "0x60806040526000805534801561001457600080fd5b5061006c6040518060400160405280600e81526020016d526f73697461204167756972726560901b8152506040518060400160405280600981526020016831323331323331323360b81b81525061007160201b60201c565b6102aa565b60008054908061008083610283565b9091555050604080516060810182526000805480835260208084018781528486018790529183526001808252949092208351815590518051939491936100ce9392850192919091019061012f565b50604082015180516100ea91600284019160209091019061012f565b509050507f5b238c329575695a37a8c7bec1baf72c825bb21c77c5fe0e5ff503d4850a4fdb600054838360405161012393929190610213565b60405180910390a15050565b82805461013b90610248565b90600052602060002090601f01602090048101928261015d57600085556101a3565b82601f1061017657805160ff19168380011785556101a3565b828001600101855582156101a3579182015b828111156101a3578251825591602001919060010190610188565b506101af9291506101b3565b5090565b5b808211156101af57600081556001016101b4565b60008151808452815b818110156101ed576020818501810151868301820152016101d1565b818111156101fe5782602083870101525b50601f01601f19169290920160200192915050565b60008482526060602083015261022c60608301856101c8565b828103604084015261023e81856101c8565b9695505050505050565b60028104600182168061025c57607f821691505b6020821081141561027d57634e487b7160e01b600052602260045260246000fd5b50919050565b60006000198214156102a357634e487b7160e01b81526011600452602481fd5b5060010190565b610550806102b96000396000f3fe608060405234801561001057600080fd5b50600436106100415760003560e01c806306661abd146100465780633dce492014610062578063e0f478cb14610077575b600080fd5b61004f60005481565b6040519081526020015b60405180910390f35b6100756100703660046103a9565b610099565b005b61008a61008536600461040a565b610157565b6040516100599392919061046d565b6000805490806100a8836104dd565b9091555050604080516060810182526000805480835260208084018781528486018790529183526001808252949092208351815590518051939491936100f693928501929190910190610289565b5060408201518051610112916002840191602090910190610289565b509050507f5b238c329575695a37a8c7bec1baf72c825bb21c77c5fe0e5ff503d4850a4fdb600054838360405161014b9392919061046d565b60405180910390a15050565b600160208190526000918252604090912080549181018054610178906104a2565b80601f01602080910402602001604051908101604052809291908181526020018280546101a4906104a2565b80156101f15780601f106101c6576101008083540402835291602001916101f1565b820191906000526020600020905b8154815290600101906020018083116101d457829003601f168201915b505050505090806002018054610206906104a2565b80601f0160208091040260200160405190810160405280929190818152602001828054610232906104a2565b801561027f5780601f106102545761010080835404028352916020019161027f565b820191906000526020600020905b81548152906001019060200180831161026257829003601f168201915b5050505050905083565b828054610295906104a2565b90600052602060002090601f0160209004810192826102b757600085556102fd565b82601f106102d057805160ff19168380011785556102fd565b828001600101855582156102fd579182015b828111156102fd5782518255916020019190600101906102e2565b5061030992915061030d565b5090565b5b80821115610309576000815560010161030e565b600082601f830112610332578081fd5b813567ffffffffffffffff8082111561034d5761034d610504565b604051601f8301601f19908116603f0116810190828211818310171561037557610375610504565b8160405283815286602085880101111561038d578485fd5b8360208701602083013792830160200193909352509392505050565b600080604083850312156103bb578182fd5b823567ffffffffffffffff808211156103d2578384fd5b6103de86838701610322565b935060208501359150808211156103f3578283fd5b5061040085828601610322565b9150509250929050565b60006020828403121561041b578081fd5b5035919050565b60008151808452815b818110156104475760208185018101518683018201520161042b565b818111156104585782602083870101525b50601f01601f19169290920160200192915050565b6000848252606060208301526104866060830185610422565b82810360408401526104988185610422565b9695505050505050565b6002810460018216806104b657607f821691505b602082108114156104d757634e487b7160e01b600052602260045260246000fd5b50919050565b60006000198214156104fd57634e487b7160e01b81526011600452602481fd5b5060010190565b634e487b7160e01b600052604160045260246000fdfea2646970667358221220311dfd0f3244e0081fd50a59d4dd86d39b848699663fe9fddeab3e58e204c22d64736f6c63430008020033",
  "immutableReferences": {},
  "source": "// SPDX-License-Identifier: UNLICENSED\r\npragma solidity ^0.8.2;\r\n\r\ncontract SimpleContract {\r\n\r\n    uint public count = 0;\r\n    mapping(uint => Contact) public contacts;\r\n  \r\n    struct Contact {\r\n        uint id;\r\n        string name;\r\n        string phone;\r\n    }\r\n    \r\n    constructor() {\r\n        createContact('Rosita Aguirre', '123123123');\r\n    }\r\n\r\n    event ContactCreated(uint id, string name, string phone);\r\n    \r\n    function createContact(string memory _name, string memory _phone) public {\r\n        count++;\r\n        contacts[count] = Contact(count, _name, _phone);\r\n        emit ContactCreated(count, _name, _phone);\r\n    }\r\n}\r\n",
  "sourcePath": "D:\\rfmrm\\Escritorio\\MIT\\Blockchain\\contracts\\contracts\\SimpleContract.sol",
  "compiler": {
    "name": "solc",
    "version": "0.8.2+commit.661d1103.Emscripten.clang"
  },
  "schemaVersion": "3.4.14",
  "updatedAt": "2023-06-14T19:58:32.415Z",
  "networkType": "ethereum",
  "devdoc": {
    "kind": "dev",
    "methods": {},
    "version": 1
  },
  "userdoc": {
    "kind": "user",
    "methods": {},
    "version": 1
  }
}